:030000000208F6FD
:0C08F600787FE4F6D8FD75811B02093DF7
:100A8300002000280006000E000E00800020002831
:080A93000006000E000E00C079
:030AB1000117002A
:100A0000120982759850758920758DFDD28E3098A7
:100A1000FD85991BC298851B993099FDC299AF1B22
:100A2000120A347FE87EFD120A6BE517B410DF125C
:040A300009C180DA9E
:1009820078087C007D007BFF7A0A79837E007F0CE9
:100992001208D0E4F514F515E51525E02408F80849
:1009A200E6F519120A9B7FE87E03120A6B0515E52C
:0E09B2001570020514C39406E514940040DA93
:0109C0002214
:1009C10078087C007D007BFF7A0A798F7E007F0C9E
:1009D1001208D0E4F514F515E51525E02408F8080A
:1009E100E6F519120A9B7FE87E03120A6B0515E5ED
:0E09F1001570020514C39406E514940040DA54
:0109FF0022D5
:100A9B008519165319F0E519C4120A5DC2A6E5169D
:060AAB00120A5DC2A62242
:100A34008F165307F0EFC4540FF5A0D2A7120A651E
:100A4400C2A6E516540FF5A0D2A7120A65C2A67F66
:090A5400887E13120A6B051722BB
:0E0A5D00540FF519F5A0C2A7D2A67F0A7E009D
:100A6B00E4FDFCC3ED9FEE6480F8EC6480985007C6
:070A7B000DBD00010C80EC31
:010A82002251
:10090200020A00E493A3F8E493A34003F68001F201
:1009120008DFF48029E493A3F85407240CC8C333F6
:10092200C4540F4420C8834004F456800146F6DFC5
:10093200E4800B0102040810204080900AB1E47E9A
:10094200019360BCA3FF543F30E509541FFEE493BA
:10095200A360010ECF54C025E060A840B8E493A381
:10096200FAE493A3F8E493A3C8C582C8CAC583CAAC
:10097200F0A3C8C582C8CAC583CADFE9DEE780BE64
:010AB4000041
:10080000E709F608DFFA8046E709F208DFFA803EDA
:1008100088828C83E709F0A3DFFA8032E309F608C7
:10082000DFFA8078E309F208DFFA807088828C832F
:10083000E309F0A3DFFA806489828A83E0A3F608E3
:10084000DFFA805889828A83E0A3F208DFFA804CBD
:1008500080D280FA80C680D4806980F28033801094
:1008600080A680EA809A80A880DA80E280CA8033FD
:1008700089828A83ECFAE493A3C8C582C8CCC58375
:10088000CCF0A3C8C582C8CCC583CCDFE9DEE78045
:100890000D89828A83E493A3F608DFF9ECFAA9F0C4
:1008A000EDFB2289828A83ECFAE0A3C8C582C8CC1A
:1008B000C583CCF0A3C8C582C8CCC583CCDFEADE33
:1008C000E880DB89828A83E493A3F208DFF980CC95
:1008D00088F0EF60010E4E60C388F0ED2402B4048E
:1008E0000050B9F582EB2402B4040050AF23234535
:0608F00082239008507302
:00000001FF
